{
	"data": {
		"bytecode": {
			"linkReferences": {},
			"object": "6080604052348015600f57600080fd5b5060928061001e6000396000f3fe6080604052348015600f57600080fd5b506004361060275760003560e01c80624264c314602c575b600080fd5b6032604b565b604051808260ff16815260200191505060405180910390f35b600080606460ff019050809150509056fea2646970667358221220683dce05fb6c6f7f5f4a9ab543434483415af6d583c4a9c61aa6fb8c11a3e66c64736f6c634300060c0033",
			"opcodes": "PUSH1 0x80 PUSH1 0x40 MSTORE CALLVALUE DUP1 ISZERO PUSH1 0xF JUMPI PUSH1 0x0 DUP1 REVERT JUMPDEST POP PUSH1 0x92 DUP1 PUSH2 0x1E PUSH1 0x0 CODECOPY PUSH1 0x0 RETURN INVALID PUSH1 0x80 PUSH1 0x40 MSTORE CALLVALUE DUP1 ISZERO PUSH1 0xF JUMPI PUSH1 0x0 DUP1 REVERT JUMPDEST POP PUSH1 0x4 CALLDATASIZE LT PUSH1 0x27 JUMPI PUSH1 0x0 CALLDATALOAD PUSH1 0xE0 SHR DUP1 PUSH3 0x4264C3 EQ PUSH1 0x2C JUMPI JUMPDEST PUSH1 0x0 DUP1 REVERT JUMPDEST PUSH1 0x32 PUSH1 0x4B JUMP JUMPDEST PUSH1 0x40 MLOAD DUP1 DUP3 PUSH1 0xFF AND DUP2 MSTORE PUSH1 0x20 ADD SWAP2 POP POP PUSH1 0x40 MLOAD DUP1 SWAP2 SUB SWAP1 RETURN JUMPDEST PUSH1 0x0 DUP1 PUSH1 0x64 PUSH1 0xFF ADD SWAP1 POP DUP1 SWAP2 POP POP SWAP1 JUMP INVALID LOG2 PUSH5 0x6970667358 0x22 SLT KECCAK256 PUSH9 0x3DCE05FB6C6F7F5F4A SWAP11 0xB5 NUMBER NUMBER DIFFICULTY DUP4 COINBASE GAS 0xF6 0xD5 DUP4 0xC4 0xA9 0xC6 BYTE 0xA6 0xFB DUP13 GT LOG3 0xE6 PUSH13 0x64736F6C634300060C00330000 "
		},
		"gasEstimates": {
			"creation": {
				"codeDepositCost": "29200",
				"executionCost": "81",
				"totalCost": "29281"
			},
			"external": {
				"overflow()": "216"
			}
		},
		"methodIdentifiers": {
			"overflow()": "004264c3"
		}
	},
	"abi": [
		{
			"inputs": [],
			"name": "overflow",
			"outputs": [
				{
					"internalType": "uint8",
					"name": "",
					"type": "uint8"
				}
			],
			"stateMutability": "view",
			"type": "function"
		}
	]
}